:020000021000EC
:1000B400130101FF9305000023248100232611006E
:1000C40013040500EF00103B83A781D46384070069
:1000D400E780070013050400EF30C01B373501002B
:1000E400130101FF1305455E23261100EF00005E96
:1000F4008320C10013050000130101016780000083
:100104009307000063880700172500001305854C3A
:100114006F00D04967800000975100009381C1CEE1
:10012400175500001305C5A2175600001306C6D4C0
:100134003306A64093050000EF00501D171500007C
:10014400130505C763080500172500001305854836
:10015400EF00D045EF005012032501009305410044
:1001640013060000EFF09FF76FF09FF483C741D6AA
:10017400639207049307000063880702130101FFD9
:10018400173500001305454723261100970000008A
:10019400E70000008320C100930710002382F1D6FA
:1001A4001301010167800000930710002382F1D638
:1001B400678000006780000093070000638C0700DD
:1001C400938581D6173500001305054317030000F6
:1001D40067000000678000001305000067800000CE
:1001E400174600001306464297250000938585862E
:1001F40017450000130545426F00C03483254500B0
:10020400130101FF2324810023261100938701D8C1
:10021400130405006384F500EF1090038325840024
:10022400938781DE6386F50013050400EF10500206
:100234008325C400938701E5638CF500130504004E
:10024400032481008320C100130101016F105000B9
:100254008320C10003248100130101016780000091
:100264001305000067800000130101FE97070000DA
:10027400938747F7232E1100232C8100232A910012
:10028400138401D823282101232631012324410189
:1002940023A4F1D4130680009307400093050000C3
:1002A4001385C1DD2326F400232004002322040047
:1002B400232404002322040623280400232A040000
:1002C400232C0400EF009004B7070100170A000074
:1002D400130ACA4097090000938989461709000048
:1002E4001309894E9704000093844454938797001C
:1002F4001306800093050000138541E4232AF406C5
:100304002320440323223403232424032326940296
:10031400232E84002324040623260406232804060B
:100324002326040C232C0406232E0406232004086D
:10033400EF00C07DB707020093872701138781DE92
:1003440013068000930500001385C1EA232EF40CE4
:10035400232444092326340923282409232A94081E
:100364002322E4082328040C232A040C232C040C41
:10037400232A04122320040E2322040E2324040E11
:10038400EF00C078938701E52328440F232A340F14
:10039400232C240F232E940E8320C1012326F40E34
:1003A4000324810183244101032901018329C1001C
:1003B400032A8100130101026780000083A781D40E
:1003C400130101FE232A9100232E1100232C810006
:1003D40093040500638E070E174800001308C82213
:1003E4009306F0FF832748009387F7FF63C007084D
:1003F400032488006F00C000130484066388D706B2
:100404000317C4009387F7FFE31807FEB707FFFF3E
:10041400938717002326F4002322040623200400D4
:10042400232404002322040023280400232A040094
:10043400232C040013068000930500001305C40553
:10044400EF00C06C23280402232A0402232204049C
:10045400232404048320C10113050400032481011F
:100464008324410113010102678000000324080072
:1004740063060400130804006FF0DFF69305C01A46
:100484001385040023260101EF0050540328C10002
:100494001304050063020504930740002322F500BA
:1004A4001305C500232004002324A4001306001A06
:1004B4009305000023260101EF0040650328C100D5
:1004C4009306F0FF23208800130804006FF09FF1C7
:1004D400EFF09FD96FF05FF0232008009307C0006E
:1004E40023A0F4006FF01FF78327450363840700FC
:1004F4006780000083A781D417070000130747D043
:10050400232AE502E39607FE6FF01FD667800000FA
:1005140067800000174600001306060F97050000C9
:100524009385C5CB130500006F00C001174600007A
:100534001306860D970500009385C5D213050000A8
:100544006F004000130101FD23202103232E3101FC
:10055400232C4101232A51012328610123267101FF
:10056400232611022324810223229102930A0600E6
:10057400130B0500938B0500130A00009309100068
:100584001309F0FF83A44A009384F4FF63CA0402AE
:1005940003A48A008357C40063FEF9008317E400B0
:1005A4009305040013050B0063862701E7800B0005
:1005B400336AAA009384F4FF13048406E39C24FDA5
:1005C40083AA0A00E3900AFC8320C1020324810267
:1005D40083244102032901028329C101832A4101A1
:1005E400032B0101832BC10013050A00032A810197
:1005F4001301010367800000130101FC232C810215
:1006040013040500138505002326B100232E1102CF
:10061400EF00805D8325C100832744039308150000
:1006240017380000130808FD130610009306010292
:10063400130720002320B1022322A102232E11013B
:10064400232401032326C102232AD100232CE10001
:1006540083258400638207068397C50003A74506A4
:10066400372600009396270163C00604B7E6FFFF10
:100674009386F6FFB3E7C7003377D7002396F500D8
:1006840023A2E5061305040013064101EF109002AE
:10069400631005021305A0008320C1030324810312
:1006A400130101046780000093172701E3DC07FCB2
:1006B4001305F0FF6FF05FFE130504002326B1005D
:1006C400EFF09FE28325C1006FF01FF99305050049
:1006D40003A5C1D36FF05FF2130101FF232481004E
:1006E400138405008395E50023261100EF00402DB7
:1006F40063400502832704058320C100B387A70054
:100704002328F404032481001301010167800000FD
:100714008357C40037F7FFFF1307F7FFB3F7E7006A
:100724008320C1002316F400032481001301010176
:100734006780000013050000678000008397C500F0
:10074400130101FE13830600232E110093F60710F4
:100754001387050093080600130805006398060232
:10076400B7F6FFFF9386F6FF8320C101B3F7D700E6
:100774008315E7002316F700930603001386080089
:1007840013050800130101026F0040298395E50059
:100794002324C100930620001306000023266100D1
:1007A4002320E1002322A100EF00C01B0327010046
:1007B4000323C100832881008317C7000328410055
:1007C4006FF01FFA130101FF232481001384050035
:1007D4008395E50023261100EF00C0181307F0FFEE
:1007E4008317C4006302E50237170000B3E7E7008C
:1007F4008320C1002328A4042316F40003248100C9
:1008040013010101678000001307058013070780A7
:10081400B3F7E7008320C1002316F400032481000A
:1008240013010101678000008395E5006F0040001B
:10083400130101FF2324810013040500138505001F
:1008440023A601D423261100EF20D0209307F0FF24
:10085400630AF5008320C100032481001301010110
:100864006780000083A7C1D4E38607FE8320C1000C
:100874002320F40003248100130101016780000098
:1008840083A7C1D3638EA70C83254504130101FEFE
:10089400232A9100232E1100232C810093040500A8
:1008A400638805042328210123263101130900004C
:1008B40093090008B387250103A40700630E04000D
:1008C400930504000324040013850400EF008061F1
:1008D400E31804FE83A5440413094900E31C39FD0D
:1008E40013850400EF000060032901018329C1007E
:1008F40083A584036386050013850400EF00805EEE
:1009040003A40404630C04009305040003240400FA
:1009140013850400EF00005DE31804FE83A5C404FE
:100924006386050013850400EF00C05B83A74403BE
:10093400638E0700032481018320C1011385040011
:100944008324410113010102678007008320C10150
:100954000324810183244101130101026780000003
:100964006780000093870500130101FF23248100A1
:10097400930506001304050013860600138507007B
:100984002326110023A601D4EF20D01D9307F0FFE6
:10099400630AF5008320C1000324810013010101CF
:1009A4006780000083A7C1D4E38607FE8320C100CB
:1009B4002320F40003248100130101016780000057
:1009C40093870500130101FF23248100930506008A
:1009D400130405001386060013850700232611005F
:1009E40023A601D4EF20101C9307F0FF630AF5003F
:1009F4008320C100032481001301010167800000EA
:100A040083A7C1D4E38607FE8320C1002320F4001A
:100A1400032481001301010167800000938705000E
:100A2400130101FF2324810093050600130405002C
:100A340013860600138507002326110023A601D47C
:100A4400EF2010229307F0FF630AF5008320C10012
:100A540003248100130101016780000083A7C1D42E
:100A6400E38607FE8320C1002320F40003248100D1
:100A74001301010167800000130101FF2324810099
:100A8400232021012326110023229100174900006D
:100A94001309C9B617440000130444B6630289025B
:100AA4003309894013592940930400008327040023
:100AB4009384140013044400E7800700E3E824FF50
:100AC40017490000130909B417440000130404B3C0
:100AD40063028902330989401359294093040000B1
:100AE400832704009384140013044400E780070060
:100AF400E3E824FF8320C100032481008324410010
:100B04000329010013010101678000001303F000B1
:100B140013070500637EC3029377F7006390070A07
:100B240063920508937606FF1376F600B386E60013
:100B34002320B7002322B7002324B7002326B700BD
:100B440013070701E366D7FE6314060067800000FD
:100B5400B306C3409396260097020000B38656005E
:100B64006780C6002307B700A306B7002306B700B3
:100B7400A305B7002305B700A304B7002304B700F7
:100B8400A303B7002303B700A302B7002302B700EF
:100B9400A301B7002301B700A300B7002300B700E7
:100BA4006780000093F5F50F93968500B3E5D500B3
:100BB40093960501B3E5D5006FF0DFF69396270011
:100BC40097020000B386560093820000E78006FA7D
:100BD40093800200938707FF3307F7403306F6003C
:100BE400E378C3F66FF0DFF393773500130705005E
:100BF400639C0704B7867F7F9386F6F79305F0FF1F
:100C04000326070013074700B377D600B387D7003E
:100C1400B3E7C700B3E7D700E384B7FE8346C7FF53
:100C2400B307A740638406048346D7FF638C060298
:100C34000345E7FF3335A0003305F5001305E5FF51
:100C440067800000E38806FA83470700130717004C
:100C540093763700E39807FE3307A7401305F7FFA1
:100C6400678000001385D7FF678000001385C7FFE6
:100C740067800000130101FD232C4101138A01D573
:100C84002320210303290A0023261102630C0906E9
:100C9400232E3101232A51012328610123267101C6
:100CA400232481022322910223248101130B0500B2
:100CB400938B05009309F0FF930A100083244900E5
:100CC4001384F4FF6342040293942400B304990050
:100CD40063840B0483A74410638077051304F4FF33
:100CE4009384C4FFE31834FF032481028324410264
:100CF4008329C101832A4101032B0101832BC100F4
:100D0400032C81008320C10203290102032A8101EB
:100D140013010103678000008327490083A6440070
:100D24009387F7FF638A870623A20400638606027B
:100D34008327891833978A00032C4900B377F70077
:100D440063940702E78006000327490083270A000B
:100D5400631E8703639C27031304F4FF9384C4FF77
:100D6400E31834F76FF05FF88327C91883A54408A4
:100D74003377F7006316070213050B00E7800600BC
:100D84000327490083270A00E30687FDE38E07F45F
:100D9400138907006FF09FF2232289006FF01FF977
:100DA40013850500E78006006FF01FFA9305050020
:100DB4009306000013060000130500006F10502C6A
:100DC400130101FE232C8100232A910023282101F1
:100DD4002326310113840500232E11001309050075
:100DE4009749000093894995EF00104683A789002D
:100DF4003717000083A4470093F4C4FF9387F47F5C
:100E04009387077F338487401354C4001304F4FF8B
:100E14001314C400634EE400930500001305090095
:100E2400EF10007683A78900B38797006306F50265
:100E340013050900EF0090418320C10103248101BF
:100E440083244101032901018329C1001305000002
:100E54001301010267800000B305804013050900F7
:100E6400EF1000729307F0FF6304F50403A78900F1
:100E740083A781EBB384844093E414002322970076
:100E840013050900B387874023ACF1EAEF00103C57
:100E94008320C10103248101832441010329010129
:100EA4008329C100130510001301010267800000AB
:100EB4009305000013050900EF10806C03A7890057
:100EC4009306F000B307E540E3D4F6F683A601D415
:100ED40093E717002322F7003305D54023ACA1EA9A
:100EE4006FF01FF563840512130101FE232C8100AA
:100EF4002326B10013040500232E1100EF00D03483
:100F04008325C100974800009388088303A88800BC
:100F140003A5C5FF138785FF9377E5FF3306F70025
:100F2400832646001373150093F6C6FF6308C8189A
:100F34002322D6003308D60003284800137818006B
:100F4400631A030803A385FF173500001305457FC3
:100F54003307674083258700B3876700638AA51238
:100F64000323C70023A665002324B300630C0818D9
:100F740093E617002322D7002320F6009306F01FE0
:100F840063E2F60A93F687FF9386860083A54800FA
:100F9400B386D80003A6060013D5570093071000A4
:100FA400B397A700B3E7B700938586FF2324C70050
:100FB4002326B70023A2F80023A0E6002326E60098
:100FC40013050400032481018320C10113010102DC
:100FD4006F00D027631E0802B387D70017350000BF
:100FE400130505768326860013E81700B305F7007A
:100FF4006380A6160326C60023A6C6002324D600B3
:101004002322070123A0F5006FF05FF7678000003B
:101014001365150023AEA5FE2320F6009306F01FEA
:10102400E3F2F6F693D69700130640006360D60EFB
:1010340093D66700938596039395350013868603AC
:10104400B385B80083A60500938585FF6398D50012
:101054006F00C01183A686006388D50003A64600EE
:101064001376C6FFE3E8C7FE83A5C6002326B700B0
:101074002324D70013050400032481018320C10124
:1010840023A4E50023A6E600130101026F00101C4F
:101094006310080A8325C60003268600B386F6007B
:1010A40093E716002326B60023A4C5002322F700E5
:1010B4003307D7002320D7006FF09FF0B386D70003
:1010C4006310030283A785FF3307F74003268700D5
:1010D400B386F6008327C7002326F60023A4C7009F
:1010E40013E6160083A741D42322C70023A4E800F3
:1010F400E3E8F6EC83A5C1D513050400EFF05FCC5B
:101104006FF01FECB387D7006FF0DFED13064001DB
:101114006378D602130640056368D60693D6C700E3
:101124009385F606939535001386E6066FF05FF116
:1011340093E617002322D7002320F6006FF05FE820
:101144009385C605939535001386B6056FF05FEF5A
:1011540023AAE80023A8E8002326A7002324A70045
:101164002322070123A0F5006FF09FE503A54800A3
:101174001356264093071000B397C700B3E7A700A0
:1011840023A2F8006FF09FEE13064015636CD6009F
:1011940093D6F700938586079395350013867607D3
:1011A4006FF01FEA13064055636CD60093D62701EF
:1011B4009385D607939535001386C6076FF05FE8CD
:1011C4009305803F1306E0076FF09FE7130101FCCE
:1011D400232C8102232E11029387B500130760018B
:1011E40013040500636EF7089306000163ECB6066A
:1011F400EF00900593060001130780019308200077
:1012040017380000130848533307E80083274700C2
:10121400130687FF638EC74403A7470003A6C700CE
:1012240083A587001377C7FF3387E700832647002A
:1012340023A6C5002326F1002324B60093E6160056
:10124400130504002322D700EF0050008327C100B8
:101254008320C10303248103138587001301010440
:10126400678000009307C0002320F40013050000EA
:101274008320C10303248103130101046780000058
:1012840093F687FFE3C007FEE3EEB6FC2326D10006
:10129400EF00807B8326C1009307701F63F8D74C4F
:1012A40093D79600638E071613074000636AF742CC
:1012B40093D7660093889703138E8703139538009A
:1012C40017380000130848473305A8008327450052
:1012D400130585FF6308F5021303F0006F00400156
:1012E40083A5C70063560634630EB50093870500D3
:1012F40003A747001377C7FF3306D740E352C3FE63
:1013040093080E0083270801973E0000938E4E43F6
:10131400638ED72D03A747009305F0001377C7FF0B
:101324003306D74063CEC546232AD8012328D801E3
:10133400635406441306F01F032348006362E63433
:10134400137687FF130686003306C800832506003C
:1013540013555700130710003317A7003363E30036
:10136400130786FF23A4B70023A6E70023226800FF
:101374002320F60023A6F50093D728401305100078
:101384003315F5006366A30AB37765006394070217
:101394001315150093F8C8FFB377650093884800C8
:1013A400639A070013151500B37765009388480006
:1013B400E38A07FE130EF000139F3800330FE80191
:1013C40013030F000327C300938F0800630CE33259
:1013D40003264700930707000327C7001376C6FFB9
:1013E400B305D640634CBE32E3C205FE3386C70064
:1013F4008326460083A587001305040093E61600A0
:101404002322D60023A6E5002324B7002326F100D7
:10141400EF00C0638327C100138587006FF05FE589
:101424001305002093080004130EF0036FF05FE926
:101434008327880003A747001377C7FF3306D740E5
:101444006366D700932506016386051A83A5C1D573
:1014540003A501D41306F0FFB385B6006306C542A5
:10146400371600001306F600B385C50037F6FFFFF4
:10147400B3F5C50013050400232E0101232CF1004C
:10148400232AD1002328E1002326B100EF10400FC6
:101494001306F0FF8325C1000327010183264101C0
:1014A400832781010328C10193080500138301D414
:1014B4006306C5343385E70063E0A834138E81EBFB
:1014C40003260E003386C5002320CE00930E0600AB
:1014D40063061549032F03001306F0FF630ECF487C
:1014E4003386A8403306D6012320CE0093FE78002D
:1014F400638C0E3A93F888FF3716000093888800AF
:10150400130686003383B8003306D641330666409B
:101514001316460193554601130504002326C103FF
:10152400232401032322F1022320D102232EE100EC
:10153400232C1101232AD101232861002326B10081
:10154400EF1000041306F0FF8325C10003230101FB
:10155400832E4101832881010327C10183260102CF
:101564008327410203288102032EC102630CC54470
:1015740003260E00330515413305B5001365150028
:10158400232418013386C50023A2A8002320CE00FB
:10159400638E07031305F0006374E53E83A54700DB
:1015A400130747FF137787FF93F51500B3E5E500AD
:1015B40023A2B70013035000B385E70023A26500FC
:1015C40023A465006368E54003A5480083A781D58B
:1015D40063F4C70023ACC1D483A741D563F4C70027
:1015E40023AAC1D4938708006F00C02103234800B5
:1015F4006FF09FD813E7160023A2E700B386D70045
:10160400136616002324D8001305040023A2C60081
:101614002326F100EF0080438327C1008320C10308
:1016240003248103138587001301010467800000EC
:1016340003A687003387E700832647002326B600E6
:101644002326F10093E6160023A4C5001305040025
:101654002322D700EF00803F8327C1008320C103EA
:1016640003248103138587001301010467800000AC
:101674008327C70093882800E306F7C86FF0DFB913
:10168400135697009305400063FEC514930540016B
:1016940063E0C5281305C605131535009305B60583
:1016A4003305A80003260500130585FF6318C5004C
:1016B4006F00001E032686006308C50083254600CC
:1016C40093F5C5FFE368B7FE0325C60023A6A7006C
:1016D40023A4C7002324F5002326F6006FF0DFC9F6
:1016E400130740016370F714130740056360F72480
:1016F40093D7C6009388F706138EE7061395380030
:101704006FF01FBC938F1F0093F73F0013038300F8
:10171400638807120327C3006FF05FCB03A587001C
:1017240093E8160023A217012326E5002324A7002B
:10173400B386D700232AD8002328D80013E715003E
:101744003386C70023A6D60123A4D60123A2E6002C
:10175400130504002320B6002326F100EF00002F18
:101764008327C100138587006FF09FB093D836009C
:10177400138786006FF0DFA83387E70083264700CE
:101784002326F1001305040093E616002322D70054
:10179400EF00C02B8327C100138587006FF05FAD76
:1017A40093E5160023A2B700B386D700232AD800F6
:1017B4002328D800936516003387E70023A6D601B3
:1017C40023A4D60123A2B600130504002320C700D6
:1017D4002326F100EF0080278327C10013858700AB
:1017E4006FF01FA9135667001305960313153500F0
:1017F400930586036FF0DFEA638807158327880063
:1018040003A547001375C5FF3306D5406366D500AD
:1018140013270601E30007DE13050400EF0000238D
:101824006FF0DFA49388C705138EB70513953800AE
:101834006FF01FA983278F009388F8FF6392E72135
:1018440093F73800130F8FFFE39607FE0327480032
:101854009347F5FFB3F7E7002322F80013151500AB
:101864001307F5FFE376F7BC3377F500631A070037
:10187400131515003377F500938F4F00E30A07FE25
:1018840093880F006FF05FB3938505016FF09FBEDF
:1018940093D52540130710003317B7003363E300D3
:1018A400232268006FF09FE23383B8003306604060
:1018B4001316460193554601130504002324C1035E
:1018C400232201032320F102232ED100232CE10043
:1018D400232A11012326B10023286100EF00504A76
:1018E4001306F0FF8325C1008328410103278101EA
:1018F4008326C1018327010203284102032E8102AA
:10190400E318C5C603250101930500006FF05FC607
:101914009305400563ECC5061356C7001305F60688
:10192400131535009305E6066FF09FD7130740158E
:10193400636CF70693D7F60093888707138E7707AF
:10194400139538006FF0DF97138E81EB832E0E0012
:10195400B38ED5012320DE016FF0DFB7139F48015A
:10196400E31A0FB683288800B305B70013E5150002
:1019740023A2A8006FF09FC5232013016FF01FB7A7
:101984009307100023A2F8006FF01FE99305401598
:1019940063ECC5061356F7001305860713153500C7
:1019A400930576076FF0DFCF13074055636CF70696
:1019B40093D726019388D707138EC707139538004A
:1019C4006FF01F90938E8EFF3305D30193050000B3
:1019D4006FF01FBA1305040093858700232AC10101
:1019E400232801012326D100EFF0CFCF03280101E2
:1019F400032E41018326C1008328880003260E009C
:101A040003A548006FF09FBC9305405563E4C502ED
:101A1400135627011305D607131535009305C6077A
:101A24006FF01FC81305803F9308F007130EE007FB
:101A34006FF01F891305803F9305E0076FF05FC6C1
:101A4400832748006FF09FE16780000067800000F3
:101A5400130101FF232611002320210163880502BD
:101A6400232481002322910013840500930405009C
:101A74006306050083274503638C070C8317C400A2
:101A84006392070203248100832441008320C10060
:101A940013090000130509000329010013010101C2
:101AA400678000009305040013850400EF00800B99
:101AB4008327C40213090500638A07008325C40130
:101AC40013850400E7800700634405068357C400B8
:101AD40093F707086396070683250403638C0500C0
:101AE400930704046386F50013850400EFF08FBFA9
:101AF4002328040283254404638805001385040015
:101B0400EFF04FBE23220404EFE05FA0231604008D
:101B1400EFE01FA08320C10003248100832441003F
:101B24001305090003290100130101016780000066
:101B34008357C4001309F0FF93F70708E38E07F8EF
:101B44008325040113850400EFF0CFB96FF0DFF8AB
:101B5400EFE09F996FF09FF29305050003A5C1D3B1
:101B64006FF01FEF0397C500130101FE232C8100C2
:101B740023263101232E1100937787001384050057
:101B84009309050063920712B71700009387078033
:101B940083A64500B367F7002396F500635CD0186D
:101BA400032884026306080E232A91009316370142
:101BB40083A4090023A0090063CA06188325C4016D
:101BC400130600009306100013850900E7000800BF
:101BD4009307F0FF13060500630CF51A8317C4007E
:101BE4000328840293F74700638E07000327440009
:101BF400832704033306E640638607008327C40370
:101C04003306F6408325C4019306000013850900BA
:101C1400E70008001307F0FF8317C400631CE512F4
:101C240083A609001307D0016362D7183707402041
:101C3400130717003357D7001377170063080716E5
:101C44008326040137F7FFFF1307F77F33F7E70015
:101C54002316E400232204002320D4001397370121
:101C64006356070083A709006388071083250403CC
:101C740023A09900638A0510930704046386F50082
:101C840013850900EFF00FA68324410123280402E1
:101C94008320C101032481018329C10013050000AD
:101CA40013010102678000002328210103A9050113
:101CB400630A0908232A910083A4050013773700D7
:101CC40023A02501B3842441930700006314070073
:101CD40083A745012324F400634890006F00400665
:101CE4003309A900635E9004832744028325C40159
:101CF400938604001306090013850900E780070092
:101D0400B384A440E34EA0FC8357C400032901011B
:101D140093E707048320C1012316F40003248101FF
:101D2400832441018329C1001305F0FF130101023B
:101D34006780000083A6C503E344D0E66FF05FF537
:101D440083244101032901016FF09FF40326040554
:101D54006FF05FE98326040137F7FFFF1307F77F6E
:101D640033F7E7002316E400232204002320D400E1
:101D740013973701E35C07EE832504032328A404A7
:101D840023A09900E39A05EE832441016FF05FF0EC
:101D940083A70900E38407E4138737FE630C070075
:101DA4009387A7FE638807008357C40093E707045B
:101DB4006FF05FF623A09900832441016FF05FED7B
:101DC400930705006306050003274503630E070018
:101DD4000397C50063160700130500006780000021
:101DE400138507006FF01FD8130101FE2326B100ED
:101DF400232E11002324A100EFE00FEF8325C1005F
:101E0400832781000397C500630A07008320C1016B
:101E140013850700130101026FF0DFD48320C10191
:101E2400130500001301010267800000630005062A
:101E34009305050003A5C1D3630605008327450365
:101E4400638C07008397C5006396070013050000A1
:101E5400678000006FF01FD1130101FE2326B1003B
:101E64002324A100232E1100EFE00FE88325C100F5
:101E7400032581008397C500639807028320C1016D
:101E840013050000130101026780000017260000FB
:101E940013068677970500009385C5F21725000081
:101EA400130585776FE00FEA8320C1011301010256
:101EB4006FF05FCB83278600638C07228396C5006F
:101EC400130101FC232C8102232441032322510307
:101ED400232E110293F7860013840500930A05004C
:101EE400130A06006384070A83A705016380070AAF
:101EF400232A91022328210323263103232061036B
:101F040093F7260083240A00638A070A370B0080AC
:101F1400130B0BC09309000013090000138609007A
:101F240013850A00630E091A9306090063762B01D0
:101F3400B7060080938606C0832744028325C40124
:101F4400E7800700635AA04083278A00B389A90069
:101F54003309A940B387A7402324FA00E39007FC80
:101F640083244103032901038329C102032B0102B2
:101F7400130500008320C10303248103032A810283
:101F8400832A4102130101046780000093050400C1
:101F940013850A00EF00403E631605268316C4002D
:101FA400232A9102232821032326310323206103BA
:101FB40093F7260083240A00E39A07F4232E710181
:101FC400232C810193F716006398071283270400DA
:101FD40037070080130CF7FF130B00009309000070
:101FE4006388090E13F7062003298400138507006C
:101FF400630E0720930B090063E2292D13F70648AB
:10200400630C0708032644018325040113171600F3
:102014003307C7001359F701B38BB7403309E900FD
:1020240093871B0013591940B3873701130609001E
:102034006376F900138907001386070093F60640B8
:102044006384062C9305060013850A00EFF00F98AD
:10205400630805308325040113860B002326A100A1
:10206400EF00806F8357C4000327C10093F7F7B7CD
:1020740093E707082316F400B30779413305770182
:10208400232A24012328E4002320A4002324F40089
:1020940013890900938B090093050B0013860B0029
:1020A400EF000059032784008327040033072741E6
:1020B4002324E40003278A00B38777012320F40054
:1020C400330737412324EA00630207288316C40038
:1020D40003AB040083A94400938484006FF05FF091
:1020E40083A9040003A94400938484006FF01FE3D0
:1020F4001305000067800000130B0000930B000021
:1021040013050000130C0000630E0B06630605089C
:1021140093870B0093090B0063F46701938907000D
:102124008326440103298400032504008327040132
:102134003389260163F4A7006340390963C0D91ABF
:10214400832744028325C40113060C0013850A0067
:10215400E7800700130905006354A008B38B2B41E3
:102164001305100063820B1683278A00B387274167
:102174002324FA00638C071C330B2B41330C2C01F2
:10218400E3160BF803AB44009387040093848400A4
:10219400E30A0BFE03AC070013060B009305A00033
:1021A40013050C00EF008033630C051813051500AC
:1021B400B30B85416FF0DFF593050C00130609009E
:1021C400EF000047832704009305040013850A00E9
:1021D400B38727012320F400EFF09FBEE30005F846
:1021E4008317C400832BC101032C81018324410381
:1021F400032901038329C102032B010293E7070486
:102204002316F4001305F0FF6FF0DFD60327040153
:102214006362F7068325440163EEB9041389090058
:1022240063743C0113090C0013050900EF104038D6
:10223400832744028325C401B306A94013060B0077
:1022440013850A00E7800700E35CA0F81309050082
:1022540083278A00B3892941B38727412324FA00BD
:102264006386070E8316C40083270400330B2B01F7
:102274006FF01FD763F42901138909001385070040
:102284001306090093050B00EF00803A832704002E
:1022940003278400B3872701330727412320F40051
:1022A4002324E400E31607FA9305040013850A00C7
:1022B400EFF01FB1E30E05F86FF09FF213890900E8
:1022C400938B09006FF05FDD9305040013850A000A
:1022D400EFF01FAFE30A05E86FF09FF013860900E3
:1022E40093050C00EF00C034032784008327040007
:1022F4001389090033073741B38737012324E400E6
:102304002320F4006FF09FE513850A00EF0080603E
:1023140013070500E31205D68325040113850A007B
:10232400EFE05FBC8357C4001307C000832BC101D7
:10233400032C810123A0EA0093F7F7F76FF01FEB5A
:1023440093071B00938B07006FF0DFDC832BC10125
:10235400032C81016FF0DFC08317C4006FF01FE905
:102364009307C00023A0FA00832BC1018317C40084
:10237400032C81016FF09FE703A7C1D3130101FE72
:10238400232E11001306050093870500630607003A
:1023940083264703638A06100397C7009376870052
:1023A400638E060283A60701638A06040397C700A7
:1023B40013761700630E060603A6470123A407003D
:1023C400130500003306C04023ACC7006380060831
:1023D4008320C10113010102678000009376070185
:1023E4006382060E93764700639E060683A6070162
:1023F400136787002396E700E39A06FA03A7C7004A
:102404009305002013770728E302B7FA13050600A3
:10241400938507002324F100EF0090328327810085
:102424000397C70083A6070113761700E31606F87F
:1024340013762700930500006314060083A5470163
:1024440023A4B70013050000E39406F89376070865
:10245400E38006F8136707042396E7001305F0FFEB
:102464006FF01FF783A507036386050293860704AD
:102474006380D502130506002326F1002324C1003E
:10248400EFE05FA68327C100032681000397C700FE
:1024940023A8070283A607011377B7FD23A2070029
:1024A40023A0D7006FF0DFF42324A1001305070055
:1024B4002326B100EFE04F838327C1000326810068
:1024C4006FF09FED93069000136707042320D60056
:1024D4002396E7001305F0FF6FF09FEF9377350025
:1024E40013F7F50F638007026308060883470500A6
:1024F4001306F6FF6380E70813051500937735008C
:10250400E39407FE130830006378C80493F5F50FCD
:1025140093978500B385B700939705013703FFFEB2
:10252400B7888080B385F5001303F3EF9388080818
:1025340083270500B3C7F500B386670093C7F7FF89
:10254400B3F7F600B3F71701639A07001306C6FF43
:1025540013054500E36EC8FC630006023306C5009C
:102564006F00C000130515006308C500834705000C
:10257400E39AE7FE6780000013050000678000000F
:10258400130101FF232481001304050013850500B2
:1025940023A601D423261100EF00D0649307F0FF93
:1025A400630AF5008320C1000324810013010101A3
:1025B4006780000083A7C1D4E38607FE8320C1009F
:1025C4002320F4000324810013010101678000002B
:1025D40097270000938747031727000013078702F4
:1025E400130101FFB387E740232291002326110042
:1025F40093D4274063860402232481001724000017
:10260400130404003304F400832704009384F4FFC8
:102614001304C4FFE7800700E39804FE0324810049
:102624008320C1008324410013010101678000005D
:1026340063F6A502B387C5006372F5026308060456
:102644003306C50003C7F7FF1306F6FF9387F7FFAA
:102654002300E600E318C5FE678000009307F0003E
:1026640063E8C702930705009306F6FF6300060EAE
:1026740093861600B386D70003C705009387170017
:1026840093851500A38FE7FEE398D7FE67800000CB
:10269400B367B50093F73700938805006392070A80
:1026A4009357460013984700330805019387F7FFB3
:1026B4001307050083A60500938505011307070189
:1026C4002328D7FE83A645FF232AD7FE83A685FFAA
:1026D400232CD7FE83A6C5FF232ED7FEE31C07FDBC
:1026E400939747003387170193050701B307F50054
:1026F4001378C60093870701138E05009376F600BE
:10270400630808049386C6FF93F6C6FF3307D70011
:10271400130747013308154103A30500B3880501D6
:102724009385450023A06800E398E5FE13874600DF
:10273400B305C701B307F700137636006FF0DFF275
:102744009306F6FF930705006FF09FF26780000081
:10275400138606006FF05FF1B3C7A50093F7370047
:10276400B308C500639607061336460063120606CF
:102774009377350013070500639A070C13F6C8FF17
:10278400B306E6409307000263C4D70693860500A8
:1027940093070700637AC70203A8060093874700DC
:1027A4009386460023AE07FFE3E8C7FE1306F6FF51
:1027B4003306E6401376C6FF9385450013074700AA
:1027C400B385C5003307C70063681701678000003D
:1027D40013070500E37C15FF83C7050013071700E3
:1027E40093851500A30FF7FEE398E8FE67800000C9
:1027F40083A6050083A2450083AF850003AFC5000F
:1028040083AE050103AE450103A3850103A8C501F9
:102814002320D70083A6050213074702232057FE6F
:10282400232ED7FE2322F7FFB306E6402324E7FF37
:102834002326D7FF2328C7FF232A67FE232C07FF5D
:1028440093854502E3C6D7FA6FF05FF483C60500AB
:102854001307170093773700A30FD7FE938515004E
:10286400E38E07F083C6050013071700937737003C
:10287400A30FD7FE93851500E39A07FC6FF01FF0B2
:1028840083A701D5638C070403A747001308F0014D
:10289400634EE80613182700630605023383070115
:1028A4002324C30883A88718130610003316E600F0
:1028B400B3E8C80023A417192324D31093062000D7
:1028C4006304D5021307170023A2E700B3870701A7
:1028D40023A4B7001305000067800000938701EE6E
:1028E40023A8F1D46FF05FFA83A6C7181307170063
:1028F40023A2E700B3E6C60023A6D718B3870701CF
:1029040023A4B70013050000678000001305F0FF3F
:10291400678000006386051E130101FE232C8100DD
:10292400232A910013840500232E1100930405002B
:102934002320C100EFF04F918325010013076001AC
:102944009387B5006376F71293F787FF93860700A2
:1029540013D7F70163E2B71E6310071E0326C4FFF3
:10296400130884FF1377C6FF6356D7129728000015
:1029740083A808DD3303E800032543006380681E51
:102984009378E5FFB308130183A8480093F818006F
:10299400639A08141375C5FFB308A70063D2D80E51
:1029A4001376160063140602032E84FF330EC84107
:1029B40003264E001376C6FF3305C500B308E500B1
:1029C40063D6D832B308C70063DED8281385040061
:1029D4002324E100232201012320F100EFE00FFF73
:1029E4008327010003284100032781009306050083
:1029F400630C05440326C4FF930585FF1376E6FFA5
:102A04003306C8006306B6221306C7FF93074002C5
:102A140063E4C72C130730016364C72293070500DE
:102A2400130704000326070023A0C700032647005A
:102A340023A2C7000327870023A4E700930504000B
:102A4400138504002320D100EFE0CFC913850400CF
:102A5400EFE0DFFF832601008320C101032481010D
:102A640083244101138506001301010267800000DD
:102A74009306000193870600130700006FF09FED93
:102A84008326C30003268300138708002326D60069
:102A940023A4C600832648003305F7409305F000BD
:102AA40093F616003306E80063E0A506B366D70084
:102AB4002322D8008327460093E717002322F60039
:102AC40013850400EFE09FF8930604008320C101FE
:102AD40003248101832441011385060013010102AB
:102AE4006780000013761600E31206EE032E84FFBF
:102AF400330EC84103264E001376C6FF6FF09FECD9
:102B0400930506006FE08FECB3E6D7002322D800CC
:102B1400B305F8001365150023A2A500832746001A
:102B2400938585001385040093E717002322F6009C
:102B3400EFE04FBB6FF0DFF89307C00023A0F40071
:102B4400930600008320C1010324810183244101F1
:102B54001385060013010102678000001375C5FF89
:102B6400B308E5001383070163DC682413761600B9
:102B7400E31E06E4032E84FF330EC84103264E00F1
:102B84001376C6FF3305C500B308E500E3CC68E25D
:102B94008326CE0083258E001306C7FF1307400249
:102BA40023A6D50023A4B60093068E006366C72E21
:102BB400930530011387060063F2C50283250400E0
:102BC4001307B0012324BE00832544002326BE003E
:102BD400636AC7301304840013070E01032604003C
:102BE4002320C700032644002322C70003268400B1
:102BF4002324C7003306FE003387F84097250000DE
:102C040023A0C5B4136717002322E60003274E0050
:102C1400138504002320D10013771700B367F7004E
:102C24002322FE00EFE09FE2832601006FF01FEAFB
:102C34008326C5FF93F6C6FF3307D7006FF09FE5E1
:102C4400832504001307B0012320B5008325440025
:102C54002322B500636EC710130784009307850011
:102C64006FF05FDC8326CE0083258E001306C7FF3A
:102C74001305400223A6D50023A4B60093068E00B4
:102C84006368C510930530011387060063F2C5021B
:102C9400832504001307B0012324BE0083254400C8
:102CA4002326BE006362C7181304840013070E01B1
:102CB400032604002320C700032644002322C70060
:102CC400032684002324C700138406001387080006
:102CD40013080E006FF01FDC930504002320A100ED
:102CE400EFF01F95832601006FF05FD58326C300A4
:102CF400832583001306C7FF1305400223A6D500CE
:102D040023A4B6000327CE0083268E0013088E006A
:102D140023A6E6002324D7006360C50E9306300182
:102D24001307080063F2C602832604001307B001E8
:102D34002324DE00832644002326DE00636CC712AE
:102D44001304840013070E01832604002320D700F4
:102D5400832644002322D700832684002324D7001B
:102D6400130408001387080013080E006FF09FD2A5
:102D7400032784002324E5000327C4002326E50059
:102D8400630CF60C13070401930705016FF09FC948
:102D940013850600930504002326C1012324F100B2
:102DA400232211012320D100EFF09F88032EC100BC
:102DB4008327810083284100832601006FF0DFF020
:102DC4003308F8003387F8409726000023AA0697B3
:102DD400136717002322E8000327C4FF13850400A8
:102DE40013771700B367F700232EF4FEEFE01FC636
:102DF400930604006FF09FCD1305080093050400AB
:102E04002326C1012324F1002322110123200101DF
:102E1400EFF01F82032801008328410083278100EB
:102E2400032EC1006FF0DFF3032784002328EE0094
:102E34000327C400232AEE006308A6081304040130
:102E440013078E016FF0DFE613850400EFE01FC067
:102E5400930600006FF01FCF0326040113078401BB
:102E6400930785012328C50003264401232AC500AE
:102E74006FF05FBB83268400130740022328DE0023
:102E84008326C400232ADE006300E6081304040139
:102E940013078E016FF05FEB1385060093050400A2
:102EA4002326C1012324F100232211012320D10070
:102EB400EFF00FF8032EC10083278100832841001F
:102EC400832601006FF01FD30326040113070E02AB
:102ED40013048401232CCE000326C4FF232ECE002A
:102EE4006FF01FDD83258400130740022328BE00F2
:102EF4008325C400232ABE006306E60213040401EA
:102F040013078E016FF09FCD8326040113070E0271
:102F140013048401232CDE008326C4FF232EDE0049
:102F24006FF09FE20326040113070E0213048401C9
:102F3400232CCE000326C4FF232ECE006FF01FCA1D
:102F44008397C50013F72700630E070093873504A2
:102F54001307100023A0F50023A8F50023AAE50019
:102F640067800000138705008395E500130101F8CD
:102F7400232C8106232E11061304050063CE0508B5
:102F8400130681012324E100EF004022032781007E
:102F9400634205089305004013050400232A9106A3
:102FA4002324E1008324C101EFE04FA20327810021
:102FB4008317C7006302050C9306004093E70708D4
:102FC400232AD70093D6C4402316F7002320A70052
:102FD4002328A70093F6F600130620006396C60C78
:102FE4008315E700130504002324E100EF0080218A
:102FF400032781008317C7006308050A93F7C7FFF7
:10300400B71600008324410793E7170093860680D0
:103014006F0000058317C70093F7070893B71700DD
:10302400B307F04093F5073C9385050413050400AA
:103034002326E1002324B100EFE04F990327C100C8
:10304400832581008317C700630A050293E70708F5
:103054002320A7002328A700232AB70093060000F3
:10306400B3E7D7002316F7008320C10703248107A1
:1030740013010108678000008324410793F60720A9
:10308400E39406FE93F7C7FF9306370493E72700FC
:10309400130610002316F7002320D7002328D70097
:1030A400232AC7006FF05FFCB71600008324410792
:1030B400938606806FF0DFFA938705008395E50019
:1030C4001307060063CA0508130101F82324C1008D
:1030D400130681012326D1002322F100232E110699
:1030E400EF00C00C83274100032781008326C10021
:1030F400634E05028327C101B7F5000037E6FFFFE1
:10310400B3F7B700B387C7008320C10793B717008D
:1031140023A0F60013060040371500002320C70043
:1031240013050580130101086780000083D7C700D9
:1031340093F70708638207048320C10793070000FD
:1031440023A0F600130600042320C7001305000083
:10315400130101086780000083D7C70093F70708AD
:10316400639A07021306004023A0F600130500002B
:103174002320C700678000008320C10723A0F60036
:10318400130600402320C7001305000013010108A3
:1031940067800000930700001306000423A0F600D4
:1031A400130500002320C7006780000093870500F3
:1031B400130101FF23248100930506001304050075
:1031C400138507002326110023A601D4EF00800FE6
:1031D4009307F0FF630AF5008320C10003248100F4
:1031E400130101016780000083A7C1D4E38607FEB1
:1031F4008320C1002320F400032481001301010172
:1032040067800000130101FF2324810013040500DB
:103214001385050023A601D423261100EF00801096
:103224009307F0FF630AF5008320C10003248100A3
:10323400130101016780000083A7C1D4E38607FE60
:103244008320C1002320F400032481001301010121
:103254006780000093089003730000006344050036
:1032640067800000130101FE232E11002326A10014
:10327400EF00402B8327C1008320C101B307F04036
:103284002320F5009307F0FF1385070013010102C3
:10329400678000009308D0057300000063440500B4
:1032A4006F000000130101FE232E11002326A1004C
:1032B400EF0040278327C100B307F0402320F50027
:1032C4006F000000130101F693870500232E1108F7
:1032D400232C810893080005930501017300000065
:1032E40013040500634205029305010113850700D9
:1032F400EF00001B8320C109130504000324810986
:103304001301010A678000002326F1003304804082
:10331400EF004021232085008327C1001304F0FF20
:103324006FF09FFC130101F9930581002326110618
:10333400EFF05FF99307F0FF630EF5000325C1007A
:103344008320C1061355D500137515001301010719
:10335400678000008320C1061305000013010107E4
:10336400678000009308E0037300000063440500D5
:1033740067800000130101FE232E11002326A10003
:10338400EF00401A8327C1008320C101B307F04036
:103394002320F5009307F0FF1385070013010102B2
:1033A400678000009308F003730000006344050085
:1033B40067800000130101FE232E11002326A100C3
:1033C400EF0040168327C1008320C101B307F040FA
:1033D4002320F5009307F0FF138507001301010272
:1033E40067800000938601D683A70600130101FFBE
:1033F4002326110013070500639007029308600D4C
:1034040013050000730000009307F0FF630CF5023E
:103414009307050023A0A6003305F7009308600D69
:103424007300000083A706003307F700631CE50060
:103434008320C10023A0A600138507001301010106
:1034440067800000EF00000E8320C1009307C000D6
:103454002320F5001305F0FF13010101678000002C
:1034640093080004730000006344050067800000B3
:10347400130101FE232E11002326A100EF00800A70
:103484008327C1008320C101B307F0402320F50046
:103494009307F0FF13850700130101026780000002
:1034A40083A6050003A7850083A7050183A345011F
:1034B40083A2850183AFC50103AF050283AE050373
:1034C40003AE050403A3850303A8850483A8C504E8
:1034D40003A685052310D5002311E50083A6C505A1
:1034E40003A785062322F50083A7C50623147500C8
:1034F400231555002316F5012317E5012328D501CB
:103504002326C50523246504232C0501232E150138
:103514002324C5022326D502232CE502232EF502FB
:103524006780000003A5C1D36780000063400506DF
:1035340063C6050613860500930505001305F0FF11
:10354400630C060293061000637AB6006358C00049
:103554001316160093961600E36AB6FE13050000D0
:1035640063E6C500B385C5403365D50093D6160020
:1035740013561600E39606FE67800000938200004F
:10358400EFF05FFB13850500678002003305A04060
:103594006348B000B305B0406FF0DFF9B305B04045
:1035A40093820000EFF01FF93305A040678002000A
:1035B4009382000063CA0500634C0500EFF09FF797
:1035C4001385050067800200B305B040E35805FE8B
:1035D4003305A040EFF01FF63305B04067800200CA
:1035E40048656C6C6F2C20524953432D56210000C2
:0235F4000A00CB
:0435F80000000000CF
:0845FC0004010100BC010100F3
:044604007001010040
:104608000000000003000000884B010000000000CB
:1046180000000000884B0100F04B0100584C0100DD
:104628000000000000000000000000000000000082
:104638000000000000000000000000000000000072
:104648000000000000000000000000000000000062
:104658000000000000000000000000000000000052
:104668000000000000000000000000000000000042
:104678000000000000000000000000000000000032
:104688000000000000000000000000000000000022
:104698000000000000000000000000000000000012
:1046A8000000000000000000010000000000000001
:1046B8000E33CDAB34126DE6ECDE05000B000000C6
:1046C80000000000000000000000000000000000E2
:1046D80000000000000000000000000000000000D2
:1046E80000000000000000000000000000000000C2
:1046F80000000000000000000000000000000000B2
:1047080000000000000000000000000000000000A1
:104718000000000000000000000000000000000091
:104728000000000000000000000000000000000081
:104738000000000000000000384701003847010071
:104748004047010040470100484701004847010031
:1047580050470100504701005847010058470100E1
:104768006047010060470100684701006847010091
:104778007047010070470100784701007847010041
:1047880080470100804701008847010088470100F1
:1047980090470100904701009847010098470100A1
:1047A800A0470100A0470100A8470100A847010051
:1047B800B0470100B0470100B8470100B847010001
:1047C800C0470100C0470100C8470100C8470100B1
:1047D800D0470100D0470100D8470100D847010061
:1047E800E0470100E0470100E8470100E847010011
:1047F800F0470100F0470100F8470100F8470100C1
:10480800004801000048010008480100084801006C
:10481800104801001048010018480100184801001C
:1048280020480100204801002848010028480100CC
:10483800304801003048010038480100384801007C
:10484800404801004048010048480100484801002C
:1048580050480100504801005848010058480100DC
:10486800604801006048010068480100684801008C
:10487800704801007048010078480100784801003C
:1048880080480100804801008848010088480100EC
:10489800904801009048010098480100984801009C
:1048A800A0480100A0480100A8480100A84801004C
:1048B800B0480100B0480100B8480100B8480100FC
:1048C800C0480100C0480100C8480100C8480100AC
:1048D800D0480100D0480100D8480100D84801005C
:1048E800E0480100E0480100E8480100E84801000C
:1048F800F0480100F0480100F8480100F8480100BC
:104908000049010000490100084901000849010067
:104918001049010010490100184901001849010017
:1049280020490100204901002849010028490100C7
:104938003049010030490100384901003849010077
:104948004049010040490100484901004849010027
:1049580050490100504901005849010058490100D7
:104968006049010060490100684901006849010087
:104978007049010070490100784901007849010037
:1049880080490100804901008849010088490100E7
:104998009049010090490100984901009849010097
:1049A800A0490100A0490100A8490100A849010047
:1049B800B0490100B0490100B8490100B8490100F7
:1049C800C0490100C0490100C8490100C8490100A7
:1049D800D0490100D0490100D8490100D849010057
:1049E800E0490100E0490100E8490100E849010007
:1049F800F0490100F0490100F8490100F8490100B7
:104A0800004A0100004A0100084A0100084A010062
:104A1800104A0100104A0100184A0100184A010012
:104A2800204A0100204A0100284A0100284A0100C2
:104A3800304A0100304A0100384A0100384A010072
:104A4800404A0100404A0100484A0100484A010022
:104A5800504A0100504A0100584A0100584A0100D2
:104A6800604A0100604A0100684A0100684A010082
:104A7800704A0100704A0100784A0100784A010032
:104A8800804A0100804A0100884A0100884A0100E2
:104A9800904A0100904A0100984A0100984A010092
:104AA800A04A0100A04A0100A84A0100A84A010042
:104AB800B04A0100B04A0100B84A0100B84A0100F2
:104AC800C04A0100C04A0100C84A0100C84A0100A2
:104AD800D04A0100D04A0100D84A0100D84A010052
:104AE800E04A0100E04A0100E84A0100E84A010002
:104AF800F04A0100F04A0100F84A0100F84A0100B2
:104B0800004B0100004B0100084B0100084B01005D
:104B1800104B0100104B0100184B0100184B01000D
:104B2800204B0100204B0100284B0100284B0100BD
:084B3800304B0100304B01007D
:104B40000000000018460100FFFFFFFF0000020008
:040000031000011CCC
:00000001FF
